:020000040800F2
:10000000800700202902000897140008CF13000879
:10001000951400081F04000889160008000000005D
:10002000000000000000000000000000DD150008D6
:10003000A90400080000000099140008DF1500085A
:10004000430200084302000843020008430200087C
:10005000430200084302000843020008430200086C
:10006000430200084302000843020008430200085C
:10007000430200084302000821040008430200086C
:10008000430200084302000843020008430200083C
:10009000430200084302000843020008430200082C
:1000A000430200084302000843020008430200081C
:1000B000430200084302000843020008430200080C
:1000C00043020008430200084302000843020008FC
:1000D0009D14000843020008430200084302000880
:1000E00043020008430200084302000843020008DC
:1000F00043020008430200084302000843020008CC
:1001000043020008430200084302000843020008BB
:1001100043020008430200084302000843020008AB
:10012000430200084302000843020008430200089B
:10013000430200084302000843020008430200088B
:10014000430200084302000843020008430200087B
:10015000430200084302000843020008430200086B
:10016000430200084302000843020008430200085B
:100170004302000843020008430200080000000098
:10018000430200084302000800F002F800F03CF8C7
:100190000AA090E8000C82448344AAF10107DA45E2
:1001A00001D100F031F8AFF2090EBAE80F0013F0F8
:1001B000010F18BFFB1A43F001031847381600005F
:1001C00058160000103A24BF78C878C1FAD85207F0
:1001D00024BF30C830C144BF04680C6070470000C1
:1001E0000023002400250026103A28BF78C1FBD840
:1001F000520728BF30C148BF0B6070471FB501F0E0
:10020000E7FA1FBD10B510BD00F0CFF81146FFF79B
:10021000F5FF01F051FA00F0EDF803B4FFF7F2FF3B
:1002200003BC00F0F5F80000094880470948004782
:10023000FEE7FEE7FEE7FEE7FEE7FEE7FEE7FEE796
:10024000FEE7FEE704480549054A064B70470000F3
:10025000791600088901000880010020800700202D
:10026000800300208003002053EA020C00F0698024
:100270002DE9F04B4FF00006002B1FBFB3FA83F5BA
:1002800003FA05F424FA05F65E4012BF1643B2FAEB
:1002900082F502FA05F4C5F120051EBF22FA05FC1D
:1002A00044EA0C04203556EA044C4FEA144418BFC3
:1002B000641C4FF000084FF00009904271EB030CF2
:1002C00039D3002919BFB1FA81F701FA07F6B0FA5C
:1002D00080F700FA07F6C7F120071EBF20FA07FCD7
:1002E00046EA0C062037B6FBF4FCA7EB0507103FE7
:1002F00007F01F0BCBF120060CFA0BFB2CFA06F6CD
:1003000044BFB3460026202FA4BF5E464FF0000B2B
:100310005BEA060C08BF4FF0010B19EB0B09ABFBB6
:10032000027C48EB0608C01B06FB02CC0BFB03CC8F
:1003300071EB0C01C1E70B46024641464846BDE859
:10034000F08B13B54FF000004FF00001AFF30080C9
:10035000BDE81C4070474FF0000200B513469446BC
:100360009646203922BFA0E80C50A0E80C50B1F10D
:100370002001BFF4F7AF090728BFA0E80C5048BF21
:100380000CC05DF804EB890028BF40F8042B08BFBF
:10039000704748BF20F8022B11F0804F18BF00F8BB
:1003A000012B7047704770477047754600F02CF876
:1003B000AE4605006946534620F00700854618B052
:1003C00020B5FFF73FFFBDE820404FF000064FF09B
:1003D00000074FF000084FF0000B21F00701AC467A
:1003E000ACE8C009ACE8C009ACE8C009ACE8C00999
:1003F0008D46704710B50446AFF300802046BDE837
:100400001040FFF70ABF000000487047200100209D
:1004100001491820ABBEFEE7260002007047FEE748
:10042000014800F057B80000C00000200168182300
:10043000CAB2103AB2FBF3F2054B6FF30901032A7B
:100440009B5CC36500D9091D8165084670470000A3
:10045000DA17000810B5014600208B698A6A4FF050
:10046000C07453B1B3F5005F15D072B1012A0CD03E
:10047000022A0AD0032A09D104E01AB1012A06D0BF
:10048000022A03D1C96AC90100D5012010BDC96A79
:10049000A142FAD010BD002AF7D0012AF2D0022AD8
:1004A000F3D0032AF3D010BD704772B6FEE790F880
:1004B0003510022903D080214165012070470521B4
:1004C00080F835100068016821F00101016000200A
:1004D000704700002DE9F84304464FF00009CDF8BD
:1004E000009063484FF41651A56D0068B0FBF1F71A
:1004F0002E6894F85C10082000FA01F131420FD008
:1005000021680A6852070BD50A6822F004020A60C3
:1005100094F85C108840A860606D40F00100606550
:1005200094F85C104FF0010808FA01F0304208D04E
:1005300021684969090604D5A860606D40F0020091
:10054000606594F85C1004208840304208D021682F
:100550000968890704D5A860606D40F004006065F3
:1005600094F85C1010208840304218D02168096847
:10057000090714D5A86020680168490304D50068FC
:10058000000308D5A16C07E00168C90503D4016820
:1005900021F008010160216C09B12046884794F8D8
:1005A0005C1020208840304231D021680968C9069B
:1005B0002DD5A86094F8350005282068016806D07C
:1005C000490347D5006800031DD4616C1CE021F08D
:1005D000160101602068416921F080014161206CB1
:1005E00008B9A06C20B12068016821F00801016001
:1005F00094F85C103F208840A86084F8358084F827
:100600003490216D1FE0E16B09B120468847606D91
:1006100000282BD0606DC00714D0052084F8350069
:100620002068016821F0010101600098401C0090E1
:10063000B84203D820680068C007F6D184F8358036
:1006400084F83490E16C002910D001B02046BDE858
:10065000F04308470168C905D5D4016821F01001AD
:10066000016084F8358084F83490CCE7BDE8F883E5
:10067000640000202DE9F041044600F075F90646BB
:100680005CB1022084F83500002584F834502068DD
:10069000016821F0010101600DE00120BDE8F08159
:1006A00000F062F9801B052805D920206065032031
:1006B00084F83500F2E720680068C007F0D12268AE
:1006C000116820480140D4E901031843D4E90336F6
:1006D0003343184363691843A3691843E369184314
:1006E000236A18430843616A042903D1D4E90B1330
:1006F00019430843106020684069666A20F00701CA
:1007000030460E43012704280CD1A06A0643E06A54
:1007100040B12046FFF79EFE20B14020606584F87E
:100720003570BAE7206846612046FFF77FFE94F8EF
:100730005C203F2191408160656584F83570002020
:10074000ACE700003F8010F070B5044600F00CF9F3
:100750000546601C02D004480078044400F004F907
:10076000401BA042FAD370BD580000202DE9F84F7D
:10077000DFF8BCA10022012503264FF00F090AF182
:10078000040BAAF1040E00BF0B6805FA02F4234023
:10079000A34270D10F7907F00307012F01D0022F78
:1007A00016D187684FEA420806FA08FC27EA0C07C8
:1007B000D1F80CC00CFA08FC4CEA070CC0F808C0D1
:1007C0004768A7430C79C4F3001494403C43446049
:1007D0000C79E443A4070AD0C4684FEA420C06FA35
:1007E0000CF7BC438F6807FA0CF72743C7600C79F6
:1007F00004F00304022C12D1D40800EB840CDCF8C2
:1008000020405707FF0E09FA07F824EA0804D1F838
:10081000108008FA07F848EA0408CCF82080046839
:100820004FEA420C06FA0CF7BC430F7907F00307B6
:1008300007FA0CF7274307604C6814F4403F70D068
:100840003C4C276847F480472760246822F0030760
:1008500004F480440094384C07EB040CDCF808489E
:1008600097074FEA177809FA08F7BC43334FB842A5
:1008700002D1002724E054E0314FB84201D10127D2
:100880001EE0304FB84201D1022719E02E4FB84286
:1008900001D1032714E02D4FB84201D104270FE006
:1008A0002B4FB84201D105270AE02A4FB84201D1A7
:1008B000062705E0284FB84201D1072700E00827A6
:1008C00007FA08F72743CCF80878DAF800405746CB
:1008D000D1F804C09C435FEACC2C00D51C433C609B
:1008E000DBF800405F46D1F804C09C435FEA8C2CE3
:1008F00000D51C433C60DEF800407746D1F804C0C8
:100900009C435FEA8C3C00D51C433C60084F083F89
:100910003C68D1F804C09C435FEACC3C00D51C4342
:100920003C60521C102AFFF42FAFBDE8F88F000086
:10093000083C0140443802400030014000000240C1
:100940000004024000080240000C02400010024077
:100950000014024000180240001C02400AB18161EC
:1009600070470904FBE700000148806870470000F9
:100970005800002002488168027811448160704765
:10098000580000200B4810B5016841F40071016067
:10099000016841F480610160016841F48071016087
:1009A000032000F06FF80F2000F006F800F024F8A4
:1009B000002010BD003C024070B50D4D04464FF4C0
:1009C0007A712878B1FBF0F00A490968B1FBF0F0C0
:1009D00000F0E9FC48B9102C07D200222146501E35
:1009E00000F030F800206C6070BD012070BD000088
:1009F00058000020640000200A4808B5016841F44E
:100A000080410160006800F4804000900548001FAC
:100A1000016841F080510160006800F08050009052
:100A200008BD000044380240002809DB00F01F0226
:100A3000012191404009800000F1E020C0F8001140
:100A400070470000F0B40E4B1B680C46C3F3022342
:100A5000C3F10705042D00D90425191D072901D26A
:100A6000002300E0DB1E012606FA05F1491E2140A5
:100A700099409E40761E16403143F0BC00F005BE02
:100A80000CED00E0064900F0070208684FF6FF038E
:100A9000184040EA0220034A1043086070470000F3
:100AA0000CED00E00000FA052DE9F0470E460500C8
:100AB00065D0DFF81481D8F80000F7B200F0070025
:100AC000B04207D288F80070D8F8000000F00700A4
:100AD000B04254D128683D4C810712D5400703D558
:100AE000206840F4E05020602878000703D5206893
:100AF00040F4604020602068A96820F0F0000843BE
:100B000020602878C0072DD030496868083901284E
:100B100012D0022813D0032811D0096889070029B0
:100B20002DDA216821F0030101432160FFF71CFF4A
:100B3000814641F2883A0EE009688903EFE70968C7
:100B40008901ECE7FFF710FFA0EB0901514502D93D
:100B50000320BDE8F0872068696800F00C00B0EB66
:100B6000810FEFD1D8F80010404601F00701B142E3
:100B700007D90770006800F00700B04201D00120DB
:100B8000E7E72878400705D52068E96820F4E050B9
:100B9000084320602878000706D52068296920F4DA
:100BA000604040EAC100206000F018F82168084A5F
:100BB000C1F30311515CC84006490860064800684B
:100BC000FFF7FAFE0020C4E7003C0240083802406C
:100BD000E2170008640000205C000020154810B5F2
:100BE000006810F00C02144813D01449042A0FD0E6
:100BF000082A0ED10F4C241F2268236802F03F02FE
:100C00005B0207D52068C0F38810A0FB010106E055
:100C1000084610BD2168C1F38811A1FB0001002323
:100C2000FFF722FB2168C1F30141491C4900B0FBD9
:100C3000F1F010BD083802400024F40040787D0136
:100C40002DE9F84F04006ED02078DFF84C93C007F0
:100C5000A9F104054AD009F104000168C1F381013A
:100C6000012908D00068C0F3810002280AD1D9F810
:100C70000000400206D52868800337D56068002848
:100C8000E1D033E06068B0F5803F10D0B0F5A02F20
:100C9000286810D020F480302860286820F4802054
:100CA00028606068A8B1FFF75FFE06460DE028687F
:100CB00040F48030F4E740F480202860F7E700BF7C
:100CC000FFF752FE801B642873D828688003F7D58D
:100CD0000CE0FFF749FE064605E000BFFFF744FEC3
:100CE000801B6428F0D828688003F7D42078DFF8C8
:100CF000AC8280074FF0000A3ED5A748001D01686E
:100D000011F00C0F08D00068C0F3810002280BD14D
:100D1000D9F80000400207D42868800716D5E0689B
:100D2000012800D112E033E1E068B8B10120C8F831
:100D30000000FFF719FE064605E000BFFFF714FEAE
:100D4000801B0228C0D828688007F7D52868216949
:100D500020F0F80040EAC10028600DE0C8F800A0CB
:100D6000FFF702FE064604E0FFF7FEFD801B0228A7
:100D70001FD828688007F7D42078000722D5864F2F
:100D800087486169703771B101210160FFF7ECFD9F
:100D9000064604E0FFF7E8FD801B022809D8386802
:100DA0008007F7D50EE0C0F800A0FFF7DDFD06468E
:100DB00005E082E0FFF7D8FD801B02287DD8386867
:100DC0008007F7D42078400768D5DFF8CCB100273A
:100DD0000BF13C0BDBF80000C0000BD4DBF800107B
:100DE00041F08051CBF80010DBF80000012700F043
:100DF000805000906B4E3068C00510D4306840F4CD
:100E000080703060FFF7B0FD009005E0FFF7ACFDAB
:100E10000099401A022850D83068C005F6D55E4EB9
:100E2000A0686C3601280FD00528306810D020F05B
:100E300001003060306820F004003060A068B8B174
:100E4000FFF792FD00900FE0306840F00100F4E7FA
:100E500040F004003060F7E7FFF786FD0099411A83
:100E600041F28830814266D830688007F4D50EE0C0
:100E7000FFF77AFD009007E0FFF776FD0099411A31
:100E800041F28830814256D830688007F4D42FB1BF
:100E9000DBF8001021F08051CBF80010A069C8B336
:100EA0003D49091D0968C1F3810102294AD0022880
:100EB000504607D0C8F8600000E03CE0FFF754FD62
:100EC00004463BE04746C8F86000FFF74DFD064684
:100ED00005E000BFFFF748FD801B02282BD82868DB
:100EE0008001F7D4D4E907010843A16A2E4A4908D2
:100EF00002EB0141626A41EA8211084394F82C1026
:100F000040EA0161C9F8001001203866FFF72CFDA6
:100F1000044606E03EE000BFFFF726FD001B022866
:100F200009D828688001F7D534E000BFFFF71CFD21
:100F3000001B022802D90320BDE8F88F2868800131
:100F4000F4D427E00128F7D0D9F80000E26900F4D2
:100F5000800191421CD1226A00F03F01914217D1D9
:100F600047F6C071626A0140B1EB821F10D1A26ADC
:100F70004FF0FF3300F4403103EB5202B1EB024F6C
:100F800006D194F82C1000F07060B0EB016F01D026
:100F90000120D1E70020CFE704380240000047429B
:100FA000800E4742007000400000FFFF70470000C5
:100FB00038B5016804464A688868C043430606D5C8
:100FC000C30704D1D3435B0601D4216C05E083073A
:100FD00008D4D3431B0605D4616C01B02046BDE89C
:100FE00030400847830603D5430601D5C30551D4D5
:100FF000D3439B064ED443060AD494F85130032BB6
:1010000049D0636D43F004036365CB688B6800933C
:10101000830609D4636D43F0010363658B68009315
:101020000B6823F040030B60C00506D4606D40F0F0
:1010300008006065206880680090606D002829D0F5
:101040002068416821F0E0014160012084F85100EE
:10105000900701D4D00722D02068416821F0030115
:101060004160114DE06C40B10565E06CFFF71FFA7F
:1010700018B1606D40F040006065A06C002809D098
:101080000565A06CFFF713FA002803D0606D40F0EF
:101090004000606538BDC8688868009038BD20464B
:1010A000FFF784FF38BD0000A914000870B50400E4
:1010B00009D0606A002540B125616561A56294F898
:1010C000510040B10CE0012070BD6068B0F5827F36
:1010D000F4D0E561F2E784F85050204600F044F87F
:1010E000022084F851002068016821F0400101606D
:1010F000A088218900F4827001F404410843A18989
:1011000001F400610843217C01F002010843217DC4
:1011100001F001010843218B01F400710843217F94
:1011200001F03801084394F8201001F080010843D1
:10113000218D01F40051084321680860A069042151
:1011400001EA104094F8241001F0100108432168CE
:1011500048602068C16921F40061C16165650120B2
:1011600084F85100002070BD2DE9F04186B006469C
:1011700014216846FFF7EFF82949306888424CD1BE
:1011800028480025016841F4804101600068254934
:1011900000F4804010390590086840F004000860B1
:1011A000086800F004000590086840F0020008603C
:1011B0000868022400F0020005900C2003274FF07D
:1011C00005088DE8B10169461748FFF7CFFA2003FB
:1011D0008DE8B10169461548FFF7C8FA154C144867
:1011E000C4E900050015A560C4E9035080106561DD
:1011F000C4E906500002C4E908052046FFF73AFAA0
:1012000008B1FFF752F9F464002211462420A663C6
:10121000FFF718FC2420FFF707FC06B0BDE8F081BB
:1012200000380040403802400008024000040240FC
:1012300058600240C00000202DE9F84F044690F8A5
:1012400050000026984615468A4601280CD00127F2
:1012500084F85070FFF788FB814694F85100B3463C
:10126000012804D002269AE00220BDE8F88FBAF1E6
:10127000000F6FD0002D6DD0032084F85100C4F80A
:1012800054B0C4F830A0A586E586C4F838B0A4F8F8
:101290003CB0A4F83EB0C4F844B0C4F840B0A06874
:1012A000B0F5004F09D12068016821F040010160CC
:1012B0002068016841F480410160206801684906A6
:1012C00003D4016841F040010160E068B0F5006FAF
:1012D000606803D058B3012D29D049E008B1012D31
:1012E0001FD1206B21680088C86006E020688168F3
:1012F000890709D5216B0988C160206B801C206398
:10130000E08E401EE0860CE0FFF72EFBA0EB09010B
:10131000414503D3B8F1FF3F03D006E0B8F1000F19
:1013200003D0E08E0028E1D125E0032635E0206BD4
:1013300021680078087306E02068816889070AD56B
:10134000216B09780173206B401C2063E08E401EE6
:10135000E0860DE01FE0FFF707FBA0EB0901414528
:1013600003D3B8F1FF3F03D0DFE7B8F1000FDCD0C3
:10137000E08E0028E0D14A464146204600F09CF825
:1013800008B120206065A06818B92068C16880682D
:101390000090606D08B1012601E084F8517084F876
:1013A00050B0304661E710B5401EB0F1807F01D3E8
:1013B000012010BD4FF0E02460610F21601700F0A4
:1013C00064F90020A06107202061002010BDFEE725
:1013D00070B586B014216846FEF7BDFF1A48002597
:1013E000016841F080010160016801F08001059110
:1013F000016841F004010160016801F004010591F8
:10140000016841F002010160016801F002010591EB
:10141000016841F00101016000680C4E00F001001C
:101420004FF480540590002221463046FFF796FA8B
:101430000121CDE90041CDE9021569463046FFF7AB
:1014400095F906B070BD000030380240000402403B
:101450000F4810B50D4901604FF4827141600021C1
:101460008160C1604FF400720161C0E90512182269
:10147000C0E90721416281620A21C162FFF716FEBD
:10148000002801D072B6FEE710BD00000038004011
:1014900068000020FEE7FEE7704700000148FFF704
:1014A00087BD00006800002010B5806B0021C18757
:1014B000C186FFF77BFD10BDF8B515460E460B46FD
:1014C000009204460122022100F02CF8A0B9134832
:1014D00013490068B0FBF1F04FF47A714843009073
:1014E0006068B0F5827F0DD133460022802120460E
:1014F000009500F017F870B1606D40F02000606555
:101500000320F8BD009830B1401E0090206880682C
:10151000C0430006F6D50020F8BD0000640000209E
:1015200000366E012DE9F8431E4691468846044672
:10153000089DFFF719FA401B351AFFF715FA074601
:1015400025480068C0F3CB30684338E0701C37D0C2
:10155000FFF70AFAC01BA84203D215B1009860B386
:101560002CE02068416821F0E00141606068B0F53E
:10157000827F0BD1A068B0F5004F02D0B0F5806F2C
:1015800004D12068016821F040010160A06AB0F533
:10159000005F09D12068016821F4005101602068D2
:1015A000016841F400510160012084F851000020DD
:1015B00084F850000320BDE8F8830025401E009009
:1015C0002068816838EA010004D000214945BDD176
:1015D0000020F0E70121F9E7640000207047FFF7E1
:1015E000C9B9000030B593B030216846FEF7B3FEAC
:1015F00014210CA8FEF7AFFE1D480025016841F03C
:1016000080510160006800F0805011901948016815
:1016100041F4804101600068022400F48040119090
:101620000120039010200490009406940820CDE936
:101630000750A820CDE9090404200B906846FFF765
:10164000FFFA08B172B6FEE70CA90F2081E831005D
:101650004FF4A0500F904FF48050109005210CA82B
:10166000FFF722FA002801D072B6FEE713B030BDB2
:1016700040380240007000400248016841F47001A7
:101680000160704788ED00E0FEE70907090E0028B9
:1016900004DB00F1E02080F80014704700F00F0038
:1016A00000F1E02080F8141D704700000149086037
:1016B000704700000000002008B5FFF763F9FFF74E
:1016C00091FFFFF785FE1648016841F400110160A3
:1016D0000068002200F40010009011460E20FFF771
:1016E000B1F90E20FFF7A0F9FFF7B2FE0D48FFF7A2
:1016F000DDFF00224FF480510B48FFF72FF90B4C10
:101700000A48083000F03CF820706420FFF71CF80D
:101710000648383000F00CF86420FFF715F8EFE7C2
:101720003038024068000020000402400800002019
:1017300070B5A6B04F218DF8001000224FEA0D03BE
:1017400000EBC204002101EBC206655C1E44491C8B
:1017500075700829F7D3521C032AF1DB19200021E8
:101760001954401C9128FBD30448642391226946F4
:101770000068FFF761FD26B070BD0000000000208A
:1017800070B5A6B00F218DF8001000224FEA0D03AE
:1017900000EBC204002101EBC206655C1E44491C3B
:1017A00075700829F7D3521C062AF1DB312000217D
:1017B0001954401C9128FBDB04486423912269469C
:1017C0000068FFF739FD26B070BD00000000002062
:1017D0004FF04070E1EE100A704700061016000648
:1017E00010160000000000000000010203040607BC
:1017F000080900001418000800000020680000001C
:10180000C40100087C1800086800002018070000C8
:10181000E0010008000000000000000000000000DF
:101820000000000000000000000024400000000054
:1018300000002640000000000000284000000000DA
:1018400000002A400000000000002C4000000000C2
:1018500000002E40000000000000144000000000C6
:10186000000018400000000000001C4001000000C3
:0C18700010000000000000000024F40044
:040000050800018965
:00000001FF
